:100000000C9434000C9451000C9451000C94510049
:100010000C9451000C9451000C9451000C9451001C
:100020000C9451000C9451000C9451000C9451000C
:100030000C9451000C9451000C9451000C945100FC
:100040000C9451000C9451000C9451000C945100EC
:100050000C9451000C9451000C9451000C945100DC
:100060000C9451000C94510011241FBECFEFD8E026
:10007000DEBFCDBF11E0A0E0B1E0ECE1F4E002C0F2
:1000800005900D92A431B107D9F721E0A4E1B1E0C8
:1000900001C01D92AB39B207E1F70E9453000C94E6
:1000A0000C020C940000CF93DF93CDB7DEB72C97F2
:1000B0000FB6F894DEBF0FBECDBF88E0EBE0F1E0F5
:1000C000DE01119601900D928A95E1F785E089870E
:1000D00086E08A8788E08B8789E08C870E946D01A3
:1000E00081110AC021E0AE01475F5F4FBE016F5F23
:1000F0007F4F84E00E947B010E945C01FFCFE09172
:100100000901F0910A0180E781AB12AA86E183AB75
:1001100080E184AB16AA0895CF93DF93DC01D196DA
:100120008C91D19750968C935097D2968C91D29770
:1001300051968C935197D3968C91D39752968C93DA
:100140005297D4968C91D49753968C935397D59677
:100150008C91D59754968C935497ED012896FD0178
:1001600075969D01235E3F4F8A918193E217F307B5
:10017000D9F7D0968C91D0975D968C935D979F968A
:100180008C919F975E968C935E975F961C925F977B
:1001900090961C929097ED016096FD01B1969D019D
:1001A000275D3F4F8A918193E217F307D9F7D896DD
:1001B0008C91D89799968C939997CD014096DF9121
:1001C000CF910895CF93DF93C82FD62F0E947F0041
:1001D000E0910901F0910A0181E085AB8FEF818305
:1001E000E0910901F0910A018083E0910901F09109
:1001F0000A01AC2FB0E0A45EBE4F8C9180AB11968B
:100200008C9187A717AAD08784E680AFCF010E9480
:100210008C000E94DA01DF91CF910895F999FECF09
:1002200092BD81BD60BDFA9AF99A0895F999FECF01
:1002300092BD81BDF89A0895CF92DF92EF92FF921E
:100240000F931F93CF93DF9380E090E00E941601FD
:1002500080B5843439F581E090E00E94160100B544
:1002600000931C0114E4100FE02EF12CC70101963D
:100270006C01C1E0D0E02196CE010E941601CE01B2
:100280000197E816F9062CF080B5FE01E55EFE4FF9
:100290008083100FCC16DD0674F781E0112319F06E
:1002A00080E001C080E0DF91CF911F910F91FF901E
:1002B000EF90DF90CF9008950E941C01813061F48F
:1002C00080911D01823040F06091080181E00E9420
:1002D000E2000E94F101FFCF089580E090E00E94CB
:1002E000160180B580931B0190911B0181E094342D
:1002F00009F080E00895BF92CF92DF92EF92FF92D3
:100300000F931F93CF93DF93D82F8B0164E480E08A
:1003100090E00E940E016D2F81E090E00E940E019E
:100320000F2EF4E4BF2EF02DBD0ED150C9F0FF24E6
:10033000F394F801C081E180CF2CD12C6E2DC60141
:1003400001960E940E016C2FC60102960E940E01BA
:10035000CE0DBC0E0E5F1F4FF394F394D15049F7AE
:100360006B2D619582E090E00E940E01DF91CF91AC
:100370001F910F91FF90EF90DF90CF90BF90089565
:10038000813021F488E08093C10003C080E1809334
:10039000C10086E08093C2001092C50081E880937E
:1003A000C4000895E0ECF0E0908195FFFDCF8093CC
:1003B000C60008950F931F93CF93DF938C0181E0C4
:1003C0000E94C001E8016F960F5F1F4F8A910E9443
:1003D000D201C017D107D1F7DF91CF911F910F91B3
:1003E0000895CF93DF9380E00E94C0012EE130E0BA
:1003F000E0ECF0E0C6ECD0E080818823ECF7888167
:10040000D901A458BE4F8C9321503109A9F78CE72C
:0C04100091E0DF91CF910895F894FFCFA8
:10041C0001020304050607080938012121104320B5
:04042C0056098900E4
:00000001FF
